:03000000020006F5
:03005F0002000399
:0300030002008B6D
:200062007E007F007CFF7D00EC24FFFAED34FFFB8A048B05EA4B70F00EBE00010FC3EE9491
:1A008200FFEF6480948040DC22C293C290C291C292D294D295C296C2972252
:06003500E478FFF6D8FD9F
:200013007900E94400601B7A009000A0780175A000E493F2A308B8000205A0D9F4DAF275F3
:02003300A0FF2C
:20003B007800E84400600A790175A000E4F309D8FC7800E84400600C7900900001E4F0A3C3
:04005B00D8FCD9FAFA
:0D00060075810712009CE582600302000373
:04009C007582002247
:00000001FF
