:03000000020006F5
:03005F0075080021
:0300830002000375
:0300030002009860
:200086001202B7AF82BF0106050875820122758200221202B7AF82BF01020508E50824FC80
:2000A600402AE50875F003A49000B2730200BE0200C30200C80200CD12042980D51203D388
:1100C60080D012036C80CB1203C580C675080080C12F
:200062007509C0750AF9750BA4750CB0750D99750E92750F827510F875118075129075131B
:01008200007D
:2000D700AF82EF600B7E7DEE14FDFE70FA1F80F222E5132409F98780C2A07582051200D7FD
:2000F700D2A0E5142409F98780C2A17582051200D7D2A1E5152409F98780C2A275820512FD
:2001170000D7D2A2E5162409F98780C2A37582051200D7D2A322E582FF2413F9E7FE2409CC
:20013700F98780EF24FC4039EF2F900145738006800F80188021C2A07582051200D7D2A0B2
:2001570022C2A17582051200D7D2A122C2A27582051200D7D2A222C2A37582051200D7D28E
:20017700A322AF82E5172409F98780EF24FC4039EF2F90018D738006800F80188021C2A062
:200197007582051200D7D2A022C2A17582051200D7D2A122C2A27582051200D7D2A222C251
:2001B700A37582051200D7D2A322AE167F0085151D8F1E90000AC007C006120467AC82ADE3
:2001D70083D006D007EC2EFEED3FFF85141D751E00900064C007C006120467AC82AD83D020
:2001F70006D007EC2EFEED3FFF85131D751E009003E8C007C006120467AC82AD83D006D0F7
:2002170007EC2EF582ED3FF58322E582FF2413F987060EA706EE24F650277700EF701BFD1E
:20023700FEC3ED9404EE64809480500DED2413F876000DBD00EB0E80E822EF14F5820202C1
:200257002122E582FF2413F9E7FE6004EE14F7227709BF031D7D007E00C3ED9404EE6480D6
:200277009480500DED2413F876090DBD00EB0E80E822EF04F582020259E5822413F8A61DEE
:010297002244
:200298007F0020B2047F04801320B3047F03800C20B4047F02800520B5027F018F82227519
:2002B8001800751900751A00751B00751C00120298E582FE6047EE2418F9E704F77F00BFD5
:2002D80064005017C007120298AE82D007EE6008EE2418F9E7FE04F70F80E47F007E01BE39
:2002F80004005016EE2418F98705EF2418F98704C3EC9D50028E070E80E58F82227582004E
:0103180022C2
:20031900AE82AF83EE4F600F7DC8ED14FCFD70FA1EBEFF011F80ED22AE82AF83EE4F600F75
:200339007DC8ED14FCFD70FA1EBEFF011F80ED22AE82AF83EE4F601AC007C0061200E8D001
:2003590006D0077DC8ED14FCFD70FA1EBEFF011F80E2227F007EFF8E901E900032C007C0FE
:2003790006120319120086E582D006D0076001220FBFFF0040E1221202B7AF82BF010F0521
:2003990008E50824FD500375080075820122BF030A75820312022175820022BF040A75826C
:2003B900031202597582002275820022120390E5826001229000320203497FFE7E008F90C9
:2003D9008F05ED2DFD4305018D07900032C007C006120331120086E582D006D007600122B8
:2003F9000EBE070040D87E00EFF590C313FD4305808D07900032C007C006120331120086AB
:20041900E582D006D0076001220EBE070040D9227FFE7E7F7D00EE5FF5908F04EC2CFC436B
:2004390004018C07EEC313FC4304808C06900032C007C006C005120331120086E582D005C4
:0E045900D006D0076001220DBD060040C9226A
:06003500E478FFF6D8FD9F
:200013007900E94400601B7A00900488780175A000E493F2A308B8000205A0D9F4DAF27507
:02003300A0FF2C
:1D046700E582851DF0A4C582C0F0851EF0A4D0F025F0C583851DF0A42583F5832218
:20003B007800E84400600A790175A000E4F309D8FC7800E84400600C7900900001E4F0A3C3
:04005B00D8FCD9FAFA
:0D00060075811E120484E582600302000370
:04048400758200225B
:00000001FF
