:03000000020006F5
:03005F0075080021
:0300830002000375
:030003000200A157
:20008600120229AF82BF010F0508E50824FD50037508007582012275820022120229AF8291
:2000A600BF010B0508E50824FD5003750800E50824FC40E7E50875F003A49000C47302008E
:2000C600D00200DB0200E90200F47517017582001201A180C61202DE751702758201120183
:1900E600A180B87517037582021201A180AD7517047582031201A180A25F
:200062007509C0750AF9750BA4750CB0750D99750E92750F827510F875118075129075131B
:01008200007D
:2000FF00AF82EF600B7E7DEE14FDFE70FA1F80F222E5132409F98780C2A07582051200FFAD
:20011F00D2A0E5142409F98780C2A17582051200FFD2A1E5152409F98780C2A275820512AC
:20013F0000FFD2A2E5162409F98780C2A37582051200FFD2A322E582FF2413F9E7FE240954
:20015F00F98780EF24FC4039EF2F90016D738006800F80188021C2A07582051200FFD2A03A
:20017F0022C2A17582051200FFD2A122C2A27582051200FFD2A222C2A37582051200FFD2EE
:20019F00A322AF82E5172409F98780EF24FC4039EF2F9001B5738006800F80188021C2A012
:2001BF007582051200FFD2A022C2A17582051200FFD2A122C2A27582051200FFD2A222C2B1
:2001DF00A37582051200FFD2A322E582FF2413F987060EA706EE24F650277700EF701BFD6E
:2001FF00FEC3ED9404EE64809480500DED2413F876000DBD00EB0E80E822EF14F5820201FB
:0A021F00E922E5822413F8A6182254
:1F0229007F0020B2047F04801320B3047F03800C20B4047F02800520B5027F018F8222FE
:20024800AE82AF83EE4F6031C007C006120110D006D0077DC8C007C006C005120086E58273
:20026800D005D006D007600475820122ED14FCFD70E31EBEFF011F80CB75820022AE82AFEB
:2002880083EE4F60267DC8C007C006C005120086E582D005D006D007600475820122ED1479
:2002A800FCFD70E31EBEFF011F80D6758200227F007EFF8E901E758203C007C0061201E9C5
:2002C800900005120248E582D006D0076001220FBFFF0040DE227FFE7E008F908F05ED2DB9
:2002E800FD4305018D0790000AC007C006120285E582D006D0076001220EBE070040DB7E59
:2003080000EFF590C313FD4305808D0790000AC007C006120285E582D006D0076001220ECD
:20032800BE070040DC227FFE7E7F7D00EE5FF5908F04EC2CFC4304018C07EEC313FC430460
:20034800808C0690000AC007C006C005120285E582D005D006D0076001220DBD060040CCB6
:010368002272
:06003500E478FFF6D8FD9F
:200013007900E94400601B7A0090036D780175A000E493F2A308B8000205A0D9F4DAF27523
:02003300A0FF2C
:20003B007800E84400600A790175A000E4F309D8FC7800E84400600C7900900001E4F0A3C3
:04005B00D8FCD9FAFA
:0D000600758118120369E582600302000392
:040369007582002277
:00000001FF
