:03000000020006F5
:03005F0075080021
:0300830002000375
:0300030002009860
:200086001203D8AF82BF0106050875820122758200221203D8AF82BF01020508E50824FC3C
:2000A600402AE50875F003A49000B2730200BE0200C30200C80200CD12054D80D51204F73E
:1100C60080D012049780CB1204EC80C675080080C1DB
:200062007509C0750AF9750BA4750CB0750D99750E92750F827510F875118075129075131B
:01008200007D
:2000D700AF82EF600B7E7DEE14FDFE70FA1F80F222E5132409F98780C2A07582051200D7FD
:2000F700D2A0E5142409F98780C2A17582051200D7D2A1E5152409F98780C2A275820512FD
:2001170000D7D2A2E5162409F98780C2A37582051200D7D2A322E582FF2413F9E7FE2409CC
:20013700F98780EF24FC4039EF2F900145738006800F80188021C2A07582051200D7D2A0B2
:2001570022C2A17582051200D7D2A122C2A27582051200D7D2A222C2A37582051200D7D28E
:20017700A322AF82E5172409F98780EF24FC4039EF2F90018D738006800F80188021C2A062
:200197007582051200D7D2A022C2A17582051200D7D2A122C2A27582051200D7D2A222C251
:2001B700A37582051200D7D2A322AE167F0085151D8F1E90000AC007C00612058BAC82ADBE
:2001D70083D006D007EC2EFEED3FFF85141D751E00900064C007C00612058BAC82AD83D0FB
:2001F70006D007EC2EFEED3FFF85131D751E009003E8C007C00612058BAC82AD83D006D0D2
:2002170007EC2EF582ED3FF58322E582FF2413F987060EA706EE24F650277700EF701BFD1E
:20023700FEC3ED9404EE64809480500DED2413F876000DBD00EB0E80E822EF14F5820202C1
:200257002122E582FF2413F9E7FE6004EE14F722EF142413F8E660097709EF14F5820202CB
:2002770059EF24FE2413F8E660117709EF142413F87609EF24FEF582020259EF24FD24131A
:20029700F8E660197709EF142413F87609EF24FE2413F87609EF24FDF5820202597E007F1F
:2002B70000C3EE9404EF64809480500DEE2413F876090EBE00EB0F80E8221201C1AE82AFFB
:2002D70083EE4F70067E0F7F2780051EBEFF011FC3E49E74808FF063F08095F0502A751D02
:2002F7000A751E008E828F83C007C00612061EAC82D006D0078C16751D0A751E008E828F1A
:2003170083120654AE82AF83C3E49E74808FF063F08095F0502A751D0A751E008E828F839A
:20033700C007C00612061EAC82D006D0078C15751D0A751E008E828F83120654AE82AF8348
:20035700C3E49E74808FF063F08095F0502A751D0A751E008E828F83C007C00612061EAC3C
:2003770082D006D0078C14751D0A751E008E828F83120654AE82AF83C3E49E74808FF0635D
:20039700F08095F05013751D0A751E008E828F8312061EAE82AF838E1322E5822413F8A606
:0203B7001D2205
:2003B9007F0020B2047F04801320B3047F03800C20B4047F02800520B5027F018F822275F7
:2003D9001800751900751A00751B00751C001203B9E582FE6051EE2418F9E704F77F07EF50
:2003F90060237EC8C007C0061203B9AD82D006D007ED6008ED2418F9E7FD04F7EE14FDFE91
:2004190070E21F80DA7F007E01EE24FB4016EE2418F98705EF2418F98704C3EC9D50028E0D
:0B043900070E80E58F822275820022F2
:20044400AE82AF83EE4F600F7DC8ED14FCFD70FA1EBEFF011F80ED22AE82AF83EE4F600F49
:200464007DC8ED14FCFD70FA1EBEFF011F80ED22AE82AF83EE4F601AC007C0061200E8D0D5
:2004840006D0077DC8ED14FCFD70FA1EBEFF011F80E2227F007EFF8E901E900032C007C0D2
:2004A40006120444120086E582D006D0076001220FBFFF0040E1221203D8AF82BF01028039
:2004C4000FBF0202801EBF0302800BBF0416800E050875820122758203120221800675821F
:2004E40003120259758200221200E81204BBE5826000227FFE7E008F908F05ED2DFD4305AE
:20050400018D07900032C007C00612045C120086E582D006D0076001220EBE070040D87EE9
:2005240000EFF590C313FD4305808D07900032C007C00612045C120086E582D006D0076047
:2005440001220EBE070040D9227FFE7E7F7D00EE5FF5908F04EC2CFC4304018C07EEC31357
:20056400FC4304808C06900032C007C006C00512045C120086E582D005D006D00760012298
:070584000DBD060040C92275
:06003500E478FFF6D8FD9F
:200013007900E94400601B7A00900690780175A000E493F2A308B8000205A0D9F4DAF275FD
:02003300A0FF2C
:1D058B00E582851DF0A4C582C0F0851EF0A4D0F025F0C583851DF0A42583F58322F3
:2005A800E51D451E60467A01E51D25E0F51DE51E334012F51EE582951DE583951E40030A78
:2005C80080E6C3E51E13F51EE51D13F51DC3E582951DF5F0E583951E4005F58385F082C347
:0D05E800E51E13F51EE51D13F51DDAE122D9
:2005F5007A10E4FBFCE58225E0F582E58333F583EB33FBEC33FCEB951DF5F0EC951E4006F0
:09061500FCABF0438201DADD22A6
:20003B007800E84400600A790175A000E4F309D8FC7800E84400600C7900900001E4F0A3C3
:04005B00D8FCD9FAFA
:0D00060075811E12068CE582600302000366
:20061E00C2D5E58330E70DD2D5E4C39582F582E49583F583E51E30E70BE4C3951DF51DE4D5
:16063E00951EF51E1205A830D50BE4C39582F582E49583F5832246
:20065400C2D5E58330E70DD2D5E4C39582F582E49583F583E51E30E70DB2D5E4C3951DF517
:180674001DE4951EF51E1205F530D50BE4C39582F582E49583F58322C0
:04068C007582002251
:00000001FF
