:03000000020006F5
:03005F0075080021
:0300830002000375
:0300030002009860
:200086001203E4AF82BF0106050875820122758200221207739003E81205A91207C1120374
:2000A600E4AF82BF01020508E50824FC402AE50875F003A49000BE730200CA0200CF020086
:1D00C600D40200D912055980D512050380D01204A380CB1204F880C675080080C129
:200062007509C0750AF9750BA4750CB0750D99750E92750F827510F875118075129075131B
:01008200007D
:2000E300AF82EF600B7E7DEE14FDFE70FA1F80F222E5132409F98780C2A07582051200E3E5
:20010300D2A0E5142409F98780C2A17582051200E3D2A1E5152409F98780C2A275820512E4
:2001230000E3D2A2E5162409F98780C2A37582051200E3D2A322E582FF2413F9E7FE2409A8
:20014300F98780EF24FC4039EF2F900151738006800F80188021C2A07582051200E3D2A08E
:2001630022C2A17582051200E3D2A122C2A27582051200E3D2A222C2A37582051200E3D25E
:20018300A322AF82E5172409F98780EF24FC4039EF2F900199738006800F80188021C2A04A
:2001A3007582051200E3D2A022C2A17582051200E3D2A122C2A27582051200E3D2A222C221
:2001C300A37582051200E3D2A322AE167F0085151F8F2090000AC007C0061207EAAC82AD41
:2001E30083D006D007EC2EFEED3FFF85141F752000900064C007C0061207EAAC82AD83D08A
:2002030006D007EC2EFEED3FFF85131F7520009003E8C007C0061207EAAC82AD83D006D060
:2002230007EC2EF582ED3FF58322E582FF2413F987060EA706EE24F650277700EF701BFD12
:20024300FEC3ED9404EE64809480500DED2413F876000DBD00EB0E80E822EF14F5820202B5
:200263002D22E582FF2413F9E7FE6004EE14F722EF142413F8E660097709EF14F5820202B3
:2002830065EF24FE2413F8E660117709EF142413F87609EF24FEF582020265EF24FD2413F6
:2002A300F8E660197709EF142413F87609EF24FE2413F87609EF24FDF5820202657E007F07
:2002C30000C3EE9404EF64809480500DEE2413F876090EBE00EB0F80E8221201CDAE82AFE3
:2002E30083EE4F70067E0F7F2780051EBEFF011FC3E49E74808FF063F08095F0502A751FF4
:200303000A7520008E828F83C007C006120899AC82D006D0078C16751F0A7520008E828F8A
:20032300831208CFAE82AF83C3E49E74808FF063F08095F0502A751F0A7520008E828F830D
:20034300C007C006120899AC82D006D0078C15751F0A7520008E828F831208CFAE82AF833E
:20036300C3E49E74808FF063F08095F0502A751F0A7520008E828F83C007C006120899ACAF
:2003830082D006D0078C14751F0A7520008E828F831208CFAE82AF83C3E49E74808FF063D0
:2003A300F08095F05013751F0A7520008E828F83120899AE82AF838E1322E5822413F8A679
:0203C3001F22F7
:2003C5007F0020B2047F04801320B3047F03800C20B4047F02800520B5027F018F822275EB
:2003E5001800751900751A00751B00751C001203C5E582FE6051EE2418F9E704F77F07EF38
:2004050060237EC8C007C0061203C5AD82D006D007ED6008ED2418F9E7FD04F7EE14FDFE78
:2004250070E21F80DA7F007E01EE24FB4016EE2418F98705EF2418F98704C3EC9D50028E01
:0B044500070E80E58F822275820022E6
:20045000AE82AF83EE4F600F7DC8ED14FCFD70FA1EBEFF011F80ED22AE82AF83EE4F600F3D
:200470007DC8ED14FCFD70FA1EBEFF011F80ED22AE82AF83EE4F601AC007C0061200F4D0BD
:2004900006D0077DC8ED14FCFD70FA1EBEFF011F80E2227F007EFF8E901E900032C007C0C6
:2004B00006120450120086E582D006D0076001220FBFFF0040E1221203E4AF82BF01028015
:2004D0000FBF0202801EBF0302800BBF0416800E05087582012275820312022D8006758207
:2004F00003120265758200221200F41204C7E5826000227FFE7E008F908F05ED2DFD43057E
:20051000018D07900032C007C006120468120086E582D006D0076001220EBE070040D87ED1
:2005300000EFF590C313FD4305808D07900032C007C006120468120086E582D006D007602F
:2005500001220EBE070040D9227FFE7E7F7D00EE5FF5908F04EC2CFC4304018C07EEC3134B
:20057000FC4304808C06900032C007C006C005120468120086E582D005D006D00760012280
:070590000DBD060040C92269
:20059700AE82AF838E048F051EBEFF011FEC4D70F322AE82AF83EE4F600F7D9BED60031D70
:2005B70080FA1EBEFF011F80ED22D286D28790000A120597C28690000A120597C28722909C
:2005D700000A120597C28690000A120597D28790000A120597D28622AF827E09EE14FE6089
:2005F7003590000AC007C006120597D006D007EF23540124FF928690000AC007C00612054D
:2006170097D28790000A120597D006D0078F05ED2DFFC28780C690000A120597D286900072
:200637000A120597D28790000A120597A286E433FF90000AC007120597D007C2878F8222AA
:200657007F097E00EF14FF602F8E05ED2DFD90000AC007C005120597D28790000A120597CD
:20067700D005A286E4334DFE90000AC006120597D006D007C28780CC8E8222E5822582FF75
:20069700C0071205C1D0078F821205EF851D821205EF0205D6AF827E00EF2FFF430701C0D8
:2006B70007C0061205C1D006D0078F82C0061205EFE582D0067005120657AE82C0061205C6
:2006D700D6D0068E8222AF828F1D758227C007120692D0078F054305048D1D758227C00773
:2006F700120692900032120597D007EF75F0FBA4F51D7582271206929000010205A9AF82B3
:20071700AE1E74F05EFDEEC454F0FE5306F0EF4DF582C007C0061206DDD006D007EF4EF5E6
:20073700820206DDAD82AE83AFF07C00EC2DF9E43EFA8F0389828A838BF012087DFB601B60
:200757008B1E758201C007C006C005C004120715D004D005D006D0070C80D122751E33758D
:2007770082001207159000021205A9751E327582001207159000021205A9751E2875820072
:200797001207159000021205A9751E0C758200120715751E0175820012071590000212059C
:2007B700A9751E0675820002071590090B75F08012073B751EC07582001207159009177551
:1307D700F08012073B9027101205A9120086E58260002243
:1D090B0048656C6C6F20576F726C6400202020426F62206973204772656174210010
:06003500E478FFF6D8FD9F
:200013007900E94400601B7A00900928780175A000E493F2A308B8000205A0D9F4DAF27562
:02003300A0FF2C
:1D07EA00E582851FF0A4C582C0F08520F0A4D0F025F0C583851FF0A42583F583228C
:20080700E51F452060467A01E51F25E0F51FE520334012F520E582951FE583952040030A06
:2008270080E6C3E52013F520E51F13F51FC3E582951FF5F0E58395204005F58385F082C3D9
:0D084700E52013F520E51F13F51FDAE1226F
:200854007A10E4FBFCE58225E0F582E58333F583EB33FBEC33FCEB951FF5F0EC952040068A
:09087400FCABF0438201DADD2245
:20003B007800E84400600A790175A000E4F309D8FC7800E84400600C7900900001E4F0A3C3
:04005B00D8FCD9FAFA
:0D000600758120120907E5826003020003E6
:1C087D0020F71430F6148883A88220F507E6A88375830022E280F7E49322E0228A
:20089900C2D5E58330E70DD2D5E4C39582F582E49583F583E52030E70BE4C3951FF51FE452
:1608B9009520F52012080730D50BE4C39582F582E49583F5832263
:2008CF00C2D5E58330E70DD2D5E4C39582F582E49583F583E52030E70DB2D5E4C3951FF596
:1808EF001FE49520F52012085430D50BE4C39582F582E49583F58322DB
:0409070075820022D3
:00000001FF
