:03000000020006F5
:20005F007508C07509F9750AA4750BB0750C99750D92750E82750FF87510807511900200AE
:01007F00037D
:030003000200C632
:20008000AF82EF600B7E7DEE14FDFE70FA1F80F2227580F9C2A0758205120080D2A0850AE1
:2000A00080C2A1758205120080D2A1850B80C2A2758205120080D2A27580F8C2A375820598
:0900C000120080D2A3220200917B
:06003500E478FFF6D8FD9F
:200013007900E94400601B7A009000CD780175A000E493F2A308B8000205A0D9F4DAF275C6
:02003300A0FF2C
:20003B007800E84400600A790175A000E4F309D8FC7800E84400600C7900900001E4F0A3C3
:04005B00D8FCD9FAFA
:0D0006007581111200C9E58260030200033C
:0400C900758200221A
:00000001FF
