:03000000020006F5
:03005F0002000399
:030003000201AC4B
:20006200AE82AF838E048F051EBEFF011FEC4D70F322AE82AF83EE4F600F7D9BED60031DAA
:2000820080FA1EBEFF011F80ED22D286D28790000A120062C28690000A120062C28722904A
:2000A200000A120062C28690000A120062D28790000A120062D28622AF827E09EE14FE6071
:2000C2003590000AC007C006120062D006D007EF23540124FF928690000AC007C0061200C6
:2000E20062D28790000A120062D006D0078F05ED2DFFC28780C690000A120062D286900056
:200102000A120062D28790000A120062A286E433FF90000AC007120062D007C2878F822292
:200122007F097E00EF14FF602F8E05ED2DFD90000AC007C005120062D28790000A1200627B
:20014200D005A286E4334DFE90000AC006120062D006D007C28780CC8E8222E5822582FFE9
:20016200C00712008CD0078F821200BA8508821200BA0200A1AF82D2817E00EF2FFF43077D
:2001820001C007C00612008CD006D0078F82C0061200BAE582D0067005120122AE82C00604
:2001A2001200A1D006C2818E82227F00758220C007120177AE82D007EE30E7027F01EE30AC
:2001C200E6098F047D004304028C07EE30E5098F047D004304048C07EE30E4098F057E002B
:1101E2004305088D078F0875822012015D75900022E3
:06003500E478FFF6D8FD9F
:200013007900E94400601B7A009001F7780175A000E493F2A308B8000205A0D9F4DAF2759B
:02003300A0FF2C
:20003B007800E84400600A790175A000E4F309D8FC7800E84400600C7900900001E4F0A3C3
:04005B00D8FCD9FAFA
:0D0006007581081201F3E58260030200031A
:0401F30075820022EF
:00000001FF
