:03000000020006F5
:03005F0002000399
:0300030002028C6A
:20006200AE82AF838E048F051EBEFF011FEC4D70F322AE82AF83EE4F600F7D9BED60031DAA
:2000820080FA1EBEFF011F80ED22D286D28790000A120062C28690000A120062C28722904A
:2000A200000A120062C28690000A120062D28790000A120062D28622AF827E09EE14FE6071
:2000C2003590000AC007C006120062D006D007EF23540124FF928690000AC007C0061200C6
:2000E20062D28790000A120062D006D0078F05ED2DFFC28780C690000A120062D286900056
:200102000A120062D28790000A120062A286E433FF90000AC007120062D007C2878F822292
:200122007F097E00EF14FF602F8E05ED2DFD90000AC007C005120062D28790000A1200627B
:20014200D005A286E4334DFE90000AC006120062D006D007C28780CC8E8222E5822582FFE9
:20016200C00712008CD0078F821200BA8508821200BA0200A1AF827E00EF2FFF430701C00F
:2001820007C00612008CD006D0078F82C0061200BAE582D0067005120122AE82C0061200B3
:2001A200A1D0068E8222AF828F08758227C00712015DD0078F054305048D08758227C00746
:2001C20012015D900032120062D007EF75F0FBA4F50875822712015D900001020074AF82EA
:2001E200AE0974F05EFDEEC454F0FE5306F0EF4DF582C007C0061201A8D006D007EF4EF570
:20020200820201A8AD82AE83AFF07C00EC2DF9E43EFA8F0389828A838BF01202B8FB601B9F
:200222008B09758201C007C006C005C0041201E0D004D005D006D0070C80D122750933752C
:2002420082001201E09000021200747509327582001201E0900002120074750928758200C0
:200262001201E090000212007475090C7582001201E07509017582001201E09000021200F0
:20028200747509067582000201E012023E9003E81200749002D875F0801202067509C0751B
:1602A20082001201E09002E475F08012020690271012007480D4BB
:1D02D80048656C6C6F20576F726C6400202020426F6220697320477265617421004A
:06003500E478FFF6D8FD9F
:200013007900E94400601B7A009002F5780175A000E493F2A308B8000205A0D9F4DAF2759C
:02003300A0FF2C
:20003B007800E84400600A790175A000E4F309D8FC7800E84400600C7900900001E4F0A3C3
:04005B00D8FCD9FAFA
:0D0006007581091202D4E582600302000337
:1C02B80020F71430F6148883A88220F507E6A88375830022E280F7E49322E02255
:0402D400758200220D
:00000001FF
