:03000000020006F5
:0300800002000378
:030003000200A256
:200083007F0020B2047F04801320B3047F03800C20B4047F02800520B5027F018F82221293
:2000A3000083AF82BF0102800FBF02028015BF0302801BBF04E9802175160175820012019E
:2000C3008980DC75160275820112018980D175160375820212018980C675160475820312C2
:0400E300018980BB54
:20005F007508C07509F9750AA4750BB0750C99750D92750E82750FF8751080751190751229
:01007F000080
:2000E700AF82EF600B7E7DEE14FDFE70FA1F80F222E5122408F98780C2A07582051200E7DF
:20010700D2A0E5132408F98780C2A17582051200E7D2A1E5142408F98780C2A275820512E0
:2001270000E7D2A2E5152408F98780C2A37582051200E7D2A322E582FF2412F9E7FE2408A0
:20014700F98780EF24FC4039EF2F900155738006800F80188021C2A07582051200E7D2A082
:2001670022C2A17582051200E7D2A122C2A27582051200E7D2A222C2A37582051200E7D24E
:20018700A322AF82E5162408F98780EF24FC4039EF2F90019D738006800F80188021C2A044
:2001A7007582051200E7D2A022C2A17582051200E7D2A122C2A27582051200E7D2A222C211
:2001C700A37582051200E7D2A322E582FF2412F987060EA706EE24F650277700EF701BFD9F
:2001E700FEC3ED9404EE64809480500DED2412F876000DBD00EB0E80E822EF14F582020114
:0A020700D122E5822412F8A6172286
:06003500E478FFF6D8FD9F
:200013007900E94400601B7A00900215780175A000E493F2A308B8000205A0D9F4DAF2757C
:02003300A0FF2C
:20003B007800E84400600A790175A000E4F309D8FC7800E84400600C7900900001E4F0A3C3
:04005B00D8FCD9FAFA
:0D000600758117120211E5826003020003EC
:0402110075820022D0
:00000001FF
