:03000000020006F5
:20005F007508C07509F9750AA4750BB0750C99750D92750E82750FF8751080751190751229
:04007F000002000378
:0300030002017384
:20008300AF82EF600B7E7DEE14FDFE70FA1F80F222E5122408F98780C2A0758205120083A7
:2000A300D2A0E5132408F98780C2A1758205120083D2A1E5142408F98780C2A275820512A9
:2000C3000083D2A2E5152408F98780C2A3758205120083D2A322AF82E5162408F98780EF2C
:2000E30024FC4039EF2F9000ED738006800F80188021C2A0758205120083D2A022C2A175A9
:200103008205120083D2A122C2A2758205120083D2A222C2A3758205120083D2A322E582AC
:20012300FF2412F987060EA706EE24F650337700EF701DFDFEC3ED9404EE64809480500D42
:20014300ED2412F876000DBD00EB0E80E80200948F06EE14F582C007C001120121D001D0DF
:200163000787168F820200D9E5822412F8A617227E107F27EE4F6036751706758200C00721
:20018300C00612016B75170975820112016B75170875820212016B75170175820312016BFD
:0F01A300120094D006D0071EBEFF011F80C62297
:06003500E478FFF6D8FD9F
:200013007900E94400601B7A009001B6780175A000E493F2A308B8000205A0D9F4DAF275DC
:02003300A0FF2C
:20003B007800E84400600A790175A000E4F309D8FC7800E84400600C7900900001E4F0A3C3
:04005B00D8FCD9FAFA
:0D0006007581171201B2E58260030200034C
:0401B2007582002230
:00000001FF
