:03000000020006F5
:0300800002000378
:0300030002015C9B
:20008300AE82AF83EE4F601AC007C006120170D006D0077DC8ED14FCFD70FA1EBEFF011FE3
:2000A30080E222AE82AF83EE4F600F7DC8ED14FCFD70FA1EBEFF011F80ED227FFF7E008FED
:2000C300901F758203C007C006120249900005120083D006D0070EBEFF0040E3227FFE7EA8
:2000E300008F908F05ED2DFD4305018D07900064C007C0061200A6D006D0070EBE0700405D
:20010300E07E00EFF590C313FD4305808D07900064C007C0061200A6D006D0070EBE070022
:2001230040E1227FFE7E7F7D00EE5FF5908F04EC2CFC4304018C07EEC313FC4304808C0615
:1C014300900064C007C006C0051200A6D005D006D0070DBD060040D1220200E03B
:20005F007508C07509F9750AA4750BB0750C99750D92750E82750FF8751080751190751229
:01007F000080
:20015F00AF82EF600B7E7DEE14FDFE70FA1F80F222E5122408F98780C2A075820512015FED
:20017F00D2A0E5132408F98780C2A175820512015FD2A1E5142408F98780C2A275820512EF
:20019F00015FD2A2E5152408F98780C2A375820512015FD2A322E582FF2412F9E7FE240836
:2001BF00F98780EF24FC4039EF2F9001CD738006800F80188021C2A075820512015FD2A019
:2001DF0022C2A175820512015FD2A122C2A275820512015FD2A222C2A375820512015FD26B
:2001FF00A322AF82E5162408F98780EF24FC4039EF2F900215738006800F80188021C2A053
:20021F0075820512015FD2A022C2A175820512015FD2A122C2A275820512015FD2A222C22D
:20023F00A375820512015FD2A322E582FF2412F987060EA706EE24F650277700EF701BFDAD
:20025F00FEC3ED9404EE64809480500DED2412F876000DBD00EB0E80E822EF14F58202029A
:0A027F004922E5822412F8A6172296
:06003500E478FFF6D8FD9F
:200013007900E94400601B7A0090028D780175A000E493F2A308B8000205A0D9F4DAF27504
:02003300A0FF2C
:20003B007800E84400600A790175A000E4F309D8FC7800E84400600C7900900001E4F0A3C3
:04005B00D8FCD9FAFA
:0D000600758117120289E582600302000374
:040289007582002258
:00000001FF
