:060000000200510200ADF8
:01000B0032C2
:030013000200B731
:01001B0032B2
:0100230032AA
:01002B0032A2
:01003300329A
:01003B003292
:030043000200C6F2
:03004B000200D5DB
:0300AA0002004E03
:03004E000200E4C9
:2000AD00C0E0E590F4F590D0E032C0D075D008AE90630E0F8E90D0D032C0D075D008AE901D
:2000CD00630E038E90D0D032C0D075D008AE90630E018E90D0D0327590FFD2AFD2A8C288E9
:0E00ED00D2AAC28AD2A9C28DD2ABC28F80FE27
:06008000E478FFF6D8FD54
:20005E007900E94400601B7A009000FF780175A000E493F2A308B8000205A0D9F4DAF27549
:02007E00A0FFE1
:200086007800E84400600A790175A000E4F309D8FC7800E84400600C7900900001E4F0A378
:0400A600D8FCD9FAAF
:0D00510075810F1200FBE582600302004E76
:0400FB0075820022E8
:00000001FF
