:03000000020006F5
:03005F0002000399
:0300030002007A7E
:20006200AE82AF83EE4F600F7DC8ED14FCFD70FA1EBEFF011F80ED229001F412006275804F
:20008200007FFE7E7F7D008F908F04EC2CFF9001F4C007C006C005120062D005D006D007D1
:2000A2000DBD070040E17F00EEF590C313FE9001F4C007C006120062D006D0070FBF07007E
:0400C20040E680BDD7
:06003500E478FFF6D8FD9F
:200013007900E94400601B7A009000CA780175A000E493F2A308B8000205A0D9F4DAF275C9
:02003300A0FF2C
:20003B007800E84400600A790175A000E4F309D8FC7800E84400600C7900900001E4F0A3C3
:04005B00D8FCD9FAFA
:0D0006007581071200C6E582600302000349
:0400C600758200221D
:00000001FF
