:0400000002002132A7
:03000B0002008070
:0100130032BA
:03001B000200914F
:06007A0075087F02001E64
:03001E000200CF0E
:20008000C28E758CFC758A6685088DD28E75900032C28E7590FF32AF828F061FEE70FA2218
:2000A000AF828F061FEE600A7E78EE14FDFE70FA80F0227F00758264C007120097D007B241
:2000C000B60FBF640040EED2B67582640200A07590FF758921758CFC758A6685088D758BE6
:2000E00000D2AFD2A9D2ABD28C74FFB50802800A050875820A1200A080031200B330B4E998
:190100007402B50802800A150875820A1200A080031200B330B5E980D0F1
:06005000E478FFF6D8FD84
:20002E007900E94400601B7A0090011D780175A000E493F2A308B8000205A0D9F4DAF2755A
:02004E00A0FF11
:200056007800E84400600A790175A000E4F309D8FC7800E84400600C7900900001E4F0A3A8
:04007600D8FCD9FADF
:0D002100758108120119E582600302001EBE
:0401190075820022C9
:00000001FF
